8=FIX.4.2|9=145|35=D|34=4|49=ABC_DEFG01|52=20090323-15:40:29|56=CCG|115=XYZ|11=NF 0542/03232009|100=NASDAQ |54=1|38=100|55=CVS|40=1|59=0|47=A|60=20090323-15:40:29|21=1|207=N|10=139|
8=FIX.4.2|9=226|35=8|128=XYZ|34=4|49=CCG|56=ABC_DEFG01|52=20090323-15:40:35|55=CVS|37=NF 0542/03232009|11=NF 0542/03232009|17=0|20=0|39=0|150=0|54=1|38=100|40=1|59=0|31=0|32=0|100=NASDAQ|14=0|6=0|151=100|60=20090323-15:40:30|58=New order|30=N|207=N|47=A|10=149|
8=FIX.4.2|9=378|35=8|128=XYZ|34=5|49=CCG|56=ABC_DEFG01|52=20090323-15:40:35|55=CVS|37=NF 0542/03232009|100=NASDAQ|11=NF 0542/03232009|17=NF 0542/03232009001001001|20=0|39=2|150=2|54=1|38=100|40=1|59=0|31=25.4800|32=100|14=0|6=0|151=0|60=20090323-15:40:30|58=Fill|30=N|76=0034|207=N|47=A|9430=NX|9483=000008|9578=1|382=1|375=TOD|337=0000|437=100|438=1243|9579=0000100001|9426=2/2|9433=0034|29=1|63=0|9440=001001001|10=080|

8=FIX.4.2|9=145|35=D|34=4|49=ABC_DEFG01|52=20090323-15:40:29|56=CCG|115=XYZ|11=NF 0542/03232020|100=NASDAQ |54=1|38=100|55=CVS|40=1|59=0|47=A|60=20090323-15:40:29|21=1|207=N|10=139|
8=FIX.4.2|9=226|35=8|128=XYZ|34=4|49=CCG|56=ABC_DEFG01|52=20090323-15:40:35|55=CVS|37=NF 0542/03232020|11=NF 0542/03232020|17=0|20=0|39=0|150=0|54=1|38=100|40=1|59=0|31=0|32=0|100=NASDAQ|14=0|6=0|151=100|60=20090323-15:40:30|58=New order|30=N|207=N|47=A|10=149|
8=FIX.4.2|9=378|35=8|128=XYZ|34=5|49=CCG|56=ABC_DEFG01|52=20090323-15:40:35|55=CVS|37=NF 0542/03232020|100=NASDAQ|11=NF 0542/03232020|17=NF 0542/03232009001001001|20=0|39=2|150=2|54=1|38=100|40=1|59=0|31=25.4800|32=100|14=0|6=0|151=0|60=20090323-15:40:30|58=Fill|30=N|76=0034|207=N|47=A|9430=NX|9483=000008|9578=1|382=1|375=TOD|337=0000|437=100|438=1243|9579=0000100001|9426=2/2|9433=0034|29=1|63=0|9440=001001001|10=080|

8=FIX.4.2|9=145|35=D|34=25|49=ABC_DEFG01|52=20090325-14:28:05|56=CCG|115=XYZ|11=NF 0568/03252009|100=NYSE|54=2|38=500|55=CVS|40=1|59=0|47=A|60=20090325-14:28:11|21=1|207=N|10=139|
8=FIX.4.2|9=226|35=8|128=XYZ|34=26|49=CCG|56=ABC_DEFG01|52=20090325-14:28:05|55=CVS|37=NF 0542/03252009|100=NYSE|11=NF 0568/03252009|17=0|20=0|39=0|150=0|54=2|38=500|40=1|59=0|31=0|32=0|14=0|6=0|151=100|60=20090325-14:28:11|58=New order|30=N|207=N|47=A|10=149|
8=FIX.4.2|9=389|35=8|128=XYZ|34=27|49=CCG|56=ABC_DEFG01|52=20090325-14:28:10|55=CVS|37=NF 0568/03252009|100=NYSE|11=NF 0568/03252009|17=NF 0568/03252009001001001|20=0|39=1|150=1|54=2|38=500|40=1|59=0|31=25.4700|32=100|14=0|6=0|151=400|60=20090325-14:28:12|58=Partial Fill|30=N|76=0034|207=N|47=A|9430=NX|9483=000006|9578=1|382=1|375=TOD|337=0000|437=100|438=1134|9579=0000100001|9426=1|9433=0034|29=1|63=0|9440=001001001|10=251|
8=FIX.4.2|9=379|35=8|128=XYZ|34=28|49=CCG|56=ABC_DEFG01|52=20090325-14:28:10|55=CVS|37=NF 0568/03252009|100=NYSE|11=NF 0568/03252009|17=NF 0568/03252009002002002|20=0|39=2|150=2|54=2|38=500|40=1|59=0|31=25.2800|32=400|14=0|6=0|151=0|60=20090325-14:28:12|58=Fill|30=N|76=0034|207=N|47=A|9430=NX|9483=000007|9578=1|382=1|375=TOD|337=0000|437=400|438=1134|9579=0000200002|9433=0034|29=1|63=0|9440=002002002|10=186|

8=FIX.4.2|9=157|35=D|34=117|49=ABC_DEFG01|52=20090325-15:14:27|56=CCG|115=XYZ|11=NF 0573/03252009|100=LSE|54=1|38=1000|55=CVS|40=2|44=25.47|59=0|47=A|60=20090325-15:14:27|21=1|207=N|10=210|
8=FIX.4.2|9=237|35=8|128=XYZ|34=127|49=CCG|56=ABC_DEFG01|52=20090325-15:14:27|55=CVS|37=NF 0573/03252009|100=LSE|11=NF 0574/03252009|17=0|20=0|39=0|150=0|54=1|38=1000|40=2|31=0|32=0|14=0|6=0|60=20090325-15:14:28|58=New order|207=N|30=N|10=114|
8=FIX.4.2|9=197|35=G|34=118|49=ABC_DEFG01|52=20090325-15:14:47|56=CCG|115=XYZ|11=NF 0574/03252009|37=NF 0573/03252009|100=LSE|41=NF 0573/03252009|54=1|38=2000|55=CVS|40=2|44=25.47|59=0|47=A|60=20090325-15:14:47|21=1|207=N|10=185|
8=FIX.4.2|9=237|35=8|128=XYZ|34=127|49=CCG|56=ABC_DEFG01|52=20090325-15:14:47|55=CVS|37=NF 0574/03252009|11=NF 0574/03252009|100=LSE| 41=NF 0573/03252009|17=0|20=0|39=E|150=E|54=1|38=2000|40=2|31=0|32=0|14=0|6=0|60=20090325-15:14:48|58=Replace Pending|207=N|30=N|10=114|
8=FIX.4.2|9=265|35=8|128=XYZ|34=128|49=CCG|56=ABC_DEFG01|52=20090325-15:14:47|55=CVS|37=NF 0573/03252009|11=NF 0574/03252009|100=LSE|41=NF 0573/03252009|17=0|20=0|39=5|150=5|54=1|38=2000|40=2|44=25.4700|59=0|31=0|32=0|14=0|6=0|151=2000|60=20090325-15:14:48|58=Replaced|30=N|47=A|207=N|29=1|10=015|
8=FIX.4.2|9=197|35=G|34=119|49=ABC_DEFG01|52=20090325-15:15:04|56=CCG|115=XYZ|11=NF 0575/03252009|37=NF 0574/03252009|41=NF 0574/03252009|100=LSE|54=1|38=2000|55=CVS|40=2|44=25.46|59=0|47=A|60=20090325-15:15:04|21=1|207=N|10=176|
8=FIX.4.2|9=237|35=8|128=XYZ|34=129|49=CCG|56=ABC_DEFG01|52=20090325-15:15:04|55=CVS|37=NF 0575/03252009|11=NF 0575/03252009|100=LSE|41=NF 0574/03252009|17=0|20=0|39=E|150=E|54=1|38=2000|40=2|31=0|32=0|14=0|6=0|60=20090325-15:15:05|58=Replace Pending|207=N|30=N|10=107|
8=FIX.4.2|9=265|35=8|128=XYZ|34=130|49=CCG|56=ABC_DEFG01|52=20090325-15:15:04|55=CVS|37=NF 0574/03252009|11=NF 0575/03252009|100=LSE|41=NF 0574/03252009|17=0|20=0|39=5|150=5|54=1|38=2000|40=2|44=25.4600|59=0|31=0|32=0|14=0|6=0|151=2000|60=20090325-15:15:05|58=Replaced|30=N|47=A|207=N|29=1|10=254|
8=FIX.4.2|9=265|35=8|128=XYZ|34=130|49=CCG|56=ABC_DEFG01|52=20090325-15:15:05|55=CVS|37=NF 0574/03252009|11=NF 0575/03252009|100=LSE|41=NF 0574/03252009|17=0|20=0|39=2|150=2|54=1|38=2000|40=2|59=0|31=25.4600|32=2000|14=0|6=0|151=0|60=20090325-15:15:05|58=Fill|30=N|76=0034 |47=A|9430=NX|9483=000007|9578=1|382=1|375=TOD|337=0000|437=400|438=1134|9579=0000200002|9433=0034|29=1|63=0 |207=N|10=256|

8=FIX.4.2|9=157|35=D|34=129|49=ABC_DEFG01|52=20090325-15:19:49|56=CCG|115=XYZ|11=NF 0576/03252009|100=PAR|54=1|38=1000|55=CVS|40=2|44=25.47|59=0|47=A|60=20090325-15:19:49|21=1|207=N|10=234|
8=FIX.4.2|9=237|35=8|128=XYZ|34=130|49=CCG|56=ABC_DEFG01|52=20090325-15:19:50|55=CVS|37=NF 0576/03252009|100=PAR|11=NF 0576/03252009 |17=0|20=0|39=0|150=0|54=1|38=1000|31=0|32=0|14=0|6=0|151=0|60=20090325-15:19:50|58=New Order|207=N|30=N|10=300| 
8=FIX.4.2|9=190|35=F|34=130|49=ABC_DEFG01|52=20090325-15:20:13|56=CCG|115=XYZ|41=NF 0576/03252009|100=PAR|37=NF 0576/03252009|11=NF 0577/03252009|54=1|38=1000|55=CVS|60=20090325-15:20:13|1=1|207=N|9428=100|9429=900|10=130|
8=FIX.4.2|9=237|35=8|128=XYZ|34=141|49=CCG|56=ABC_DEFG01|52=20090325-15:20:14|55=CVS|37=NF 0576/03252009|100=PAR| 11=NF 0577/03252009|41=NF 0576/03252009|17=0|20=0|39=6|150=6|54=1|38=1000|31=0|32=0|14=0|6=0|151=0|60=20090325-15:20:15|58=Cancel Pending|207=N|30=N|10=000|
8=FIX.4.2|9=264|35=8|128=XYZ|34=142|49=CCG|56=ABC_DEFG01|52=20090325-15:20:14|55=CVS|37=NF 0576/03252009|100=PAR|11=NF 0577/03252009|41=NF 0576/03252009|17=0|20=0|39=5|150=5|54=1|38=1000|40=2|44=25.4700|59=0|31=0|32=0|14=0|6=0|151=900|60=20090325-15:20:15|58=Replaced|30=N|47=A|207=N|29=1|10=215|

