8=FIX.4.2|9=145|35=D|34=4|49=ABC_DEFG01|52=20090323-15:40:29|56=CCG|115=XYZ|11=NF 0542/03232009|100=NASDAQ |54=1|38=100|55=CVS|40=1|59=0|47=A|60=20090323-15:40:29|21=1|207=N|10=139|
8=FIX.4.2|9=145|35=D|34=4|49=ABC_DEFG01|52=20090323-15:40:29|56=CCG|115=XYZ|11=NF 0542/03232020|100=NASDAQ |54=1|38=100|55=CVS|40=1|59=0|47=A|60=20090323-15:40:29|21=1|207=N|10=139|
8=FIX.4.2|9=145|35=D|34=25|49=ABC_DEFG01|52=20090325-14:28:05|56=CCG|115=XYZ|11=NF 0568/03252009|100=NYSE|54=2|38=500|55=CVS|40=1|59=0|47=A|60=20090325-14:28:11|21=1|207=N|10=139|
8=FIX.4.2|9=157|35=D|34=117|49=ABC_DEFG01|52=20090325-15:14:27|56=CCG|115=XYZ|11=NF 0573/03252009|100=LSE|54=1|38=1000|55=CVS|40=2|44=25.47|59=0|47=A|60=20090325-15:14:27|21=1|207=N|10=210|
8=FIX.4.2|9=197|35=G|34=118|49=ABC_DEFG01|52=20090325-15:14:47|56=CCG|115=XYZ|11=NF 0574/03252009|37=NF 0573/03252009|100=LSE|41=NF 0573/03252009|54=1|38=2000|55=CVS|40=2|44=25.47|59=0|47=A|60=20090325-15:14:47|21=1|207=N|10=185|
8=FIX.4.2|9=197|35=G|34=119|49=ABC_DEFG01|52=20090325-15:15:04|56=CCG|115=XYZ|11=NF 0575/03252009|37=NF 0574/03252009|41=NF 0574/03252009|100=LSE|54=1|38=2000|55=CVS|40=2|44=25.46|59=0|47=A|60=20090325-15:15:04|21=1|207=N|10=176|
8=FIX.4.2|9=157|35=D|34=129|49=ABC_DEFG01|52=20090325-15:19:49|56=CCG|115=XYZ|11=NF 0576/03252009|100=PAR|54=1|38=1000|55=CVS|40=2|44=25.47|59=0|47=A|60=20090325-15:19:49|21=1|207=N|10=234|
8=FIX.4.2|9=190|35=F|34=130|49=ABC_DEFG01|52=20090325-15:20:13|56=CCG|115=XYZ|41=NF 0576/03252009|100=PAR|37=NF 0576/03252009|11=NF 0577/03252009|54=1|38=1000|55=CVS|60=20090325-15:20:13|1=1|207=N|9428=100|9429=900|10=130|
8=FIX.4.2|9=145|35=D|34=4|49=ABC_DEFG01|52=20090323-15:40:29|56=CCG|115=XYZ|11=NF 0542/03232009|100=NASDAQ |54=1|38=100|55=CVS|40=1|59=0|47=A|60=20090323-15:40:29|21=1|207=N|10=139|
8=FIX.4.2|9=145|35=D|34=4|49=ABC_DEFG01|52=20090323-15:40:29|56=CCG|115=XYZ|11=NF 0542/03232020|100=NASDAQ |54=1|38=100|55=CVS|40=1|59=0|47=A|60=20090323-15:40:29|21=1|207=N|10=139|
8=FIX.4.2|9=145|35=D|34=25|49=ABC_DEFG01|52=20090325-14:28:05|56=CCG|115=XYZ|11=NF 0568/03252009|100=NYSE|54=2|38=500|55=CVS|40=1|59=0|47=A|60=20090325-14:28:11|21=1|207=N|10=139|
8=FIX.4.2|9=157|35=D|34=117|49=ABC_DEFG01|52=20090325-15:14:27|56=CCG|115=XYZ|11=NF 0573/03252009|100=LSE|54=1|38=1000|55=CVS|40=2|44=25.47|59=0|47=A|60=20090325-15:14:27|21=1|207=N|10=210|
8=FIX.4.2|9=197|35=G|34=118|49=ABC_DEFG01|52=20090325-15:14:47|56=CCG|115=XYZ|11=NF 0574/03252009|37=NF 0573/03252009|100=LSE|41=NF 0573/03252009|54=1|38=2000|55=CVS|40=2|44=25.47|59=0|47=A|60=20090325-15:14:47|21=1|207=N|10=185|
8=FIX.4.2|9=197|35=G|34=119|49=ABC_DEFG01|52=20090325-15:15:04|56=CCG|115=XYZ|11=NF 0575/03252009|37=NF 0574/03252009|41=NF 0574/03252009|100=LSE|54=1|38=2000|55=CVS|40=2|44=25.46|59=0|47=A|60=20090325-15:15:04|21=1|207=N|10=176|
8=FIX.4.2|9=157|35=D|34=129|49=ABC_DEFG01|52=20090325-15:19:49|56=CCG|115=XYZ|11=NF 0576/03252009|100=PAR|54=1|38=1000|55=CVS|40=2|44=25.47|59=0|47=A|60=20090325-15:19:49|21=1|207=N|10=234|
8=FIX.4.2|9=190|35=F|34=130|49=ABC_DEFG01|52=20090325-15:20:13|56=CCG|115=XYZ|41=NF 0576/03252009|100=PAR|37=NF 0576/03252009|11=NF 0577/03252009|54=1|38=1000|55=CVS|60=20090325-15:20:13|1=1|207=N|9428=100|9429=900|10=130|
8=FIX.4.2|9=145|35=D|34=4|49=ABC_DEFG01|52=20090323-15:40:29|56=CCG|115=XYZ|11=NF 0542/03232009|100=NASDAQ |54=1|38=100|55=CVS|40=1|59=0|47=A|60=20090323-15:40:29|21=1|207=N|10=139|
8=FIX.4.2|9=145|35=D|34=4|49=ABC_DEFG01|52=20090323-15:40:29|56=CCG|115=XYZ|11=NF 0542/03232020|100=NASDAQ |54=1|38=100|55=CVS|40=1|59=0|47=A|60=20090323-15:40:29|21=1|207=N|10=139|
8=FIX.4.2|9=145|35=D|34=25|49=ABC_DEFG01|52=20090325-14:28:05|56=CCG|115=XYZ|11=NF 0568/03252009|100=NYSE|54=2|38=500|55=CVS|40=1|59=0|47=A|60=20090325-14:28:11|21=1|207=N|10=139|
8=FIX.4.2|9=157|35=D|34=117|49=ABC_DEFG01|52=20090325-15:14:27|56=CCG|115=XYZ|11=NF 0573/03252009|100=LSE|54=1|38=1000|55=CVS|40=2|44=25.47|59=0|47=A|60=20090325-15:14:27|21=1|207=N|10=210|
8=FIX.4.2|9=197|35=G|34=118|49=ABC_DEFG01|52=20090325-15:14:47|56=CCG|115=XYZ|11=NF 0574/03252009|37=NF 0573/03252009|100=LSE|41=NF 0573/03252009|54=1|38=2000|55=CVS|40=2|44=25.47|59=0|47=A|60=20090325-15:14:47|21=1|207=N|10=185|
8=FIX.4.2|9=197|35=G|34=119|49=ABC_DEFG01|52=20090325-15:15:04|56=CCG|115=XYZ|11=NF 0575/03252009|37=NF 0574/03252009|41=NF 0574/03252009|100=LSE|54=1|38=2000|55=CVS|40=2|44=25.46|59=0|47=A|60=20090325-15:15:04|21=1|207=N|10=176|
8=FIX.4.2|9=157|35=D|34=129|49=ABC_DEFG01|52=20090325-15:19:49|56=CCG|115=XYZ|11=NF 0576/03252009|100=PAR|54=1|38=1000|55=CVS|40=2|44=25.47|59=0|47=A|60=20090325-15:19:49|21=1|207=N|10=234|
8=FIX.4.2|9=190|35=F|34=130|49=ABC_DEFG01|52=20090325-15:20:13|56=CCG|115=XYZ|41=NF 0576/03252009|100=PAR|37=NF 0576/03252009|11=NF 0577/03252009|54=1|38=1000|55=CVS|60=20090325-15:20:13|1=1|207=N|9428=100|9429=900|10=130|
8=FIX.4.2|9=145|35=D|34=4|49=ABC_DEFG01|52=20090323-15:40:29|56=CCG|115=XYZ|11=NF 0542/03232009|100=NASDAQ |54=1|38=100|55=CVS|40=1|59=0|47=A|60=20090323-15:40:29|21=1|207=N|10=139|
8=FIX.4.2|9=145|35=D|34=4|49=ABC_DEFG01|52=20090323-15:40:29|56=CCG|115=XYZ|11=NF 0542/03232020|100=NASDAQ |54=1|38=100|55=CVS|40=1|59=0|47=A|60=20090323-15:40:29|21=1|207=N|10=139|
8=FIX.4.2|9=145|35=D|34=25|49=ABC_DEFG01|52=20090325-14:28:05|56=CCG|115=XYZ|11=NF 0568/03252009|100=NYSE|54=2|38=500|55=CVS|40=1|59=0|47=A|60=20090325-14:28:11|21=1|207=N|10=139|
8=FIX.4.2|9=157|35=D|34=117|49=ABC_DEFG01|52=20090325-15:14:27|56=CCG|115=XYZ|11=NF 0573/03252009|100=LSE|54=1|38=1000|55=CVS|40=2|44=25.47|59=0|47=A|60=20090325-15:14:27|21=1|207=N|10=210|
8=FIX.4.2|9=197|35=G|34=118|49=ABC_DEFG01|52=20090325-15:14:47|56=CCG|115=XYZ|11=NF 0574/03252009|37=NF 0573/03252009|100=LSE|41=NF 0573/03252009|54=1|38=2000|55=CVS|40=2|44=25.47|59=0|47=A|60=20090325-15:14:47|21=1|207=N|10=185|
8=FIX.4.2|9=197|35=G|34=119|49=ABC_DEFG01|52=20090325-15:15:04|56=CCG|115=XYZ|11=NF 0575/03252009|37=NF 0574/03252009|41=NF 0574/03252009|100=LSE|54=1|38=2000|55=CVS|40=2|44=25.46|59=0|47=A|60=20090325-15:15:04|21=1|207=N|10=176|
8=FIX.4.2|9=157|35=D|34=129|49=ABC_DEFG01|52=20090325-15:19:49|56=CCG|115=XYZ|11=NF 0576/03252009|100=PAR|54=1|38=1000|55=CVS|40=2|44=25.47|59=0|47=A|60=20090325-15:19:49|21=1|207=N|10=234|
8=FIX.4.2|9=190|35=F|34=130|49=ABC_DEFG01|52=20090325-15:20:13|56=CCG|115=XYZ|41=NF 0576/03252009|100=PAR|37=NF 0576/03252009|11=NF 0577/03252009|54=1|38=1000|55=CVS|60=20090325-15:20:13|1=1|207=N|9428=100|9429=900|10=130|
8=FIX.4.2|9=145|35=D|34=4|49=ABC_DEFG01|52=20090323-15:40:29|56=CCG|115=XYZ|11=NF 0542/03232009|100=NASDAQ |54=1|38=100|55=CVS|40=1|59=0|47=A|60=20090323-15:40:29|21=1|207=N|10=139|
8=FIX.4.2|9=145|35=D|34=4|49=ABC_DEFG01|52=20090323-15:40:29|56=CCG|115=XYZ|11=NF 0542/03232020|100=NASDAQ |54=1|38=100|55=CVS|40=1|59=0|47=A|60=20090323-15:40:29|21=1|207=N|10=139|
8=FIX.4.2|9=145|35=D|34=25|49=ABC_DEFG01|52=20090325-14:28:05|56=CCG|115=XYZ|11=NF 0568/03252009|100=NYSE|54=2|38=500|55=CVS|40=1|59=0|47=A|60=20090325-14:28:11|21=1|207=N|10=139|
8=FIX.4.2|9=157|35=D|34=117|49=ABC_DEFG01|52=20090325-15:14:27|56=CCG|115=XYZ|11=NF 0573/03252009|100=LSE|54=1|38=1000|55=CVS|40=2|44=25.47|59=0|47=A|60=20090325-15:14:27|21=1|207=N|10=210|
8=FIX.4.2|9=197|35=G|34=118|49=ABC_DEFG01|52=20090325-15:14:47|56=CCG|115=XYZ|11=NF 0574/03252009|37=NF 0573/03252009|100=LSE|41=NF 0573/03252009|54=1|38=2000|55=CVS|40=2|44=25.47|59=0|47=A|60=20090325-15:14:47|21=1|207=N|10=185|
8=FIX.4.2|9=197|35=G|34=119|49=ABC_DEFG01|52=20090325-15:15:04|56=CCG|115=XYZ|11=NF 0575/03252009|37=NF 0574/03252009|41=NF 0574/03252009|100=LSE|54=1|38=2000|55=CVS|40=2|44=25.46|59=0|47=A|60=20090325-15:15:04|21=1|207=N|10=176|
8=FIX.4.2|9=157|35=D|34=129|49=ABC_DEFG01|52=20090325-15:19:49|56=CCG|115=XYZ|11=NF 0576/03252009|100=PAR|54=1|38=1000|55=CVS|40=2|44=25.47|59=0|47=A|60=20090325-15:19:49|21=1|207=N|10=234|
8=FIX.4.2|9=190|35=F|34=130|49=ABC_DEFG01|52=20090325-15:20:13|56=CCG|115=XYZ|41=NF 0576/03252009|100=PAR|37=NF 0576/03252009|11=NF 0577/03252009|54=1|38=1000|55=CVS|60=20090325-15:20:13|1=1|207=N|9428=100|9429=900|10=130|
8=FIX.4.2|9=145|35=D|34=4|49=ABC_DEFG01|52=20090323-15:40:29|56=CCG|115=XYZ|11=NF 0542/03232009|100=NASDAQ |54=1|38=100|55=CVS|40=1|59=0|47=A|60=20090323-15:40:29|21=1|207=N|10=139|
8=FIX.4.2|9=145|35=D|34=4|49=ABC_DEFG01|52=20090323-15:40:29|56=CCG|115=XYZ|11=NF 0542/03232020|100=NASDAQ |54=1|38=100|55=CVS|40=1|59=0|47=A|60=20090323-15:40:29|21=1|207=N|10=139|
8=FIX.4.2|9=145|35=D|34=25|49=ABC_DEFG01|52=20090325-14:28:05|56=CCG|115=XYZ|11=NF 0568/03252009|100=NYSE|54=2|38=500|55=CVS|40=1|59=0|47=A|60=20090325-14:28:11|21=1|207=N|10=139|
8=FIX.4.2|9=157|35=D|34=117|49=ABC_DEFG01|52=20090325-15:14:27|56=CCG|115=XYZ|11=NF 0573/03252009|100=LSE|54=1|38=1000|55=CVS|40=2|44=25.47|59=0|47=A|60=20090325-15:14:27|21=1|207=N|10=210|
8=FIX.4.2|9=197|35=G|34=118|49=ABC_DEFG01|52=20090325-15:14:47|56=CCG|115=XYZ|11=NF 0574/03252009|37=NF 0573/03252009|100=LSE|41=NF 0573/03252009|54=1|38=2000|55=CVS|40=2|44=25.47|59=0|47=A|60=20090325-15:14:47|21=1|207=N|10=185|
8=FIX.4.2|9=197|35=G|34=119|49=ABC_DEFG01|52=20090325-15:15:04|56=CCG|115=XYZ|11=NF 0575/03252009|37=NF 0574/03252009|41=NF 0574/03252009|100=LSE|54=1|38=2000|55=CVS|40=2|44=25.46|59=0|47=A|60=20090325-15:15:04|21=1|207=N|10=176|
8=FIX.4.2|9=157|35=D|34=129|49=ABC_DEFG01|52=20090325-15:19:49|56=CCG|115=XYZ|11=NF 0576/03252009|100=PAR|54=1|38=1000|55=CVS|40=2|44=25.47|59=0|47=A|60=20090325-15:19:49|21=1|207=N|10=234|
8=FIX.4.2|9=190|35=F|34=130|49=ABC_DEFG01|52=20090325-15:20:13|56=CCG|115=XYZ|41=NF 0576/03252009|100=PAR|37=NF 0576/03252009|11=NF 0577/03252009|54=1|38=1000|55=CVS|60=20090325-15:20:13|1=1|207=N|9428=100|9429=900|10=130|
8=FIX.4.2|9=145|35=D|34=4|49=ABC_DEFG01|52=20090323-15:40:29|56=CCG|115=XYZ|11=NF 0542/03232009|100=NASDAQ |54=1|38=100|55=CVS|40=1|59=0|47=A|60=20090323-15:40:29|21=1|207=N|10=139|
8=FIX.4.2|9=145|35=D|34=4|49=ABC_DEFG01|52=20090323-15:40:29|56=CCG|115=XYZ|11=NF 0542/03232020|100=NASDAQ |54=1|38=100|55=CVS|40=1|59=0|47=A|60=20090323-15:40:29|21=1|207=N|10=139|
8=FIX.4.2|9=145|35=D|34=25|49=ABC_DEFG01|52=20090325-14:28:05|56=CCG|115=XYZ|11=NF 0568/03252009|100=NYSE|54=2|38=500|55=CVS|40=1|59=0|47=A|60=20090325-14:28:11|21=1|207=N|10=139|
8=FIX.4.2|9=157|35=D|34=117|49=ABC_DEFG01|52=20090325-15:14:27|56=CCG|115=XYZ|11=NF 0573/03252009|100=LSE|54=1|38=1000|55=CVS|40=2|44=25.47|59=0|47=A|60=20090325-15:14:27|21=1|207=N|10=210|
8=FIX.4.2|9=197|35=G|34=118|49=ABC_DEFG01|52=20090325-15:14:47|56=CCG|115=XYZ|11=NF 0574/03252009|37=NF 0573/03252009|100=LSE|41=NF 0573/03252009|54=1|38=2000|55=CVS|40=2|44=25.47|59=0|47=A|60=20090325-15:14:47|21=1|207=N|10=185|
8=FIX.4.2|9=197|35=G|34=119|49=ABC_DEFG01|52=20090325-15:15:04|56=CCG|115=XYZ|11=NF 0575/03252009|37=NF 0574/03252009|41=NF 0574/03252009|100=LSE|54=1|38=2000|55=CVS|40=2|44=25.46|59=0|47=A|60=20090325-15:15:04|21=1|207=N|10=176|
8=FIX.4.2|9=157|35=D|34=129|49=ABC_DEFG01|52=20090325-15:19:49|56=CCG|115=XYZ|11=NF 0576/03252009|100=PAR|54=1|38=1000|55=CVS|40=2|44=25.47|59=0|47=A|60=20090325-15:19:49|21=1|207=N|10=234|
8=FIX.4.2|9=190|35=F|34=130|49=ABC_DEFG01|52=20090325-15:20:13|56=CCG|115=XYZ|41=NF 0576/03252009|100=PAR|37=NF 0576/03252009|11=NF 0577/03252009|54=1|38=1000|55=CVS|60=20090325-15:20:13|1=1|207=N|9428=100|9429=900|10=130|
8=FIX.4.2|9=145|35=D|34=4|49=ABC_DEFG01|52=20090323-15:40:29|56=CCG|115=XYZ|11=NF 0542/03232009|100=NASDAQ |54=1|38=100|55=CVS|40=1|59=0|47=A|60=20090323-15:40:29|21=1|207=N|10=139|
8=FIX.4.2|9=145|35=D|34=4|49=ABC_DEFG01|52=20090323-15:40:29|56=CCG|115=XYZ|11=NF 0542/03232020|100=NASDAQ |54=1|38=100|55=CVS|40=1|59=0|47=A|60=20090323-15:40:29|21=1|207=N|10=139|
8=FIX.4.2|9=145|35=D|34=25|49=ABC_DEFG01|52=20090325-14:28:05|56=CCG|115=XYZ|11=NF 0568/03252009|100=NYSE|54=2|38=500|55=CVS|40=1|59=0|47=A|60=20090325-14:28:11|21=1|207=N|10=139|
8=FIX.4.2|9=157|35=D|34=117|49=ABC_DEFG01|52=20090325-15:14:27|56=CCG|115=XYZ|11=NF 0573/03252009|100=LSE|54=1|38=1000|55=CVS|40=2|44=25.47|59=0|47=A|60=20090325-15:14:27|21=1|207=N|10=210|
8=FIX.4.2|9=197|35=G|34=118|49=ABC_DEFG01|52=20090325-15:14:47|56=CCG|115=XYZ|11=NF 0574/03252009|37=NF 0573/03252009|100=LSE|41=NF 0573/03252009|54=1|38=2000|55=CVS|40=2|44=25.47|59=0|47=A|60=20090325-15:14:47|21=1|207=N|10=185|
8=FIX.4.2|9=197|35=G|34=119|49=ABC_DEFG01|52=20090325-15:15:04|56=CCG|115=XYZ|11=NF 0575/03252009|37=NF 0574/03252009|41=NF 0574/03252009|100=LSE|54=1|38=2000|55=CVS|40=2|44=25.46|59=0|47=A|60=20090325-15:15:04|21=1|207=N|10=176|
8=FIX.4.2|9=157|35=D|34=129|49=ABC_DEFG01|52=20090325-15:19:49|56=CCG|115=XYZ|11=NF 0576/03252009|100=PAR|54=1|38=1000|55=CVS|40=2|44=25.47|59=0|47=A|60=20090325-15:19:49|21=1|207=N|10=234|
8=FIX.4.2|9=190|35=F|34=130|49=ABC_DEFG01|52=20090325-15:20:13|56=CCG|115=XYZ|41=NF 0576/03252009|100=PAR|37=NF 0576/03252009|11=NF 0577/03252009|54=1|38=1000|55=CVS|60=20090325-15:20:13|1=1|207=N|9428=100|9429=900|10=130|
8=FIX.4.2|9=145|35=D|34=4|49=ABC_DEFG01|52=20090323-15:40:29|56=CCG|115=XYZ|11=NF 0542/03232009|100=NASDAQ |54=1|38=100|55=CVS|40=1|59=0|47=A|60=20090323-15:40:29|21=1|207=N|10=139|
8=FIX.4.2|9=145|35=D|34=4|49=ABC_DEFG01|52=20090323-15:40:29|56=CCG|115=XYZ|11=NF 0542/03232020|100=NASDAQ |54=1|38=100|55=CVS|40=1|59=0|47=A|60=20090323-15:40:29|21=1|207=N|10=139|
8=FIX.4.2|9=145|35=D|34=25|49=ABC_DEFG01|52=20090325-14:28:05|56=CCG|115=XYZ|11=NF 0568/03252009|100=NYSE|54=2|38=500|55=CVS|40=1|59=0|47=A|60=20090325-14:28:11|21=1|207=N|10=139|
8=FIX.4.2|9=157|35=D|34=117|49=ABC_DEFG01|52=20090325-15:14:27|56=CCG|115=XYZ|11=NF 0573/03252009|100=LSE|54=1|38=1000|55=CVS|40=2|44=25.47|59=0|47=A|60=20090325-15:14:27|21=1|207=N|10=210|
8=FIX.4.2|9=197|35=G|34=118|49=ABC_DEFG01|52=20090325-15:14:47|56=CCG|115=XYZ|11=NF 0574/03252009|37=NF 0573/03252009|100=LSE|41=NF 0573/03252009|54=1|38=2000|55=CVS|40=2|44=25.47|59=0|47=A|60=20090325-15:14:47|21=1|207=N|10=185|
8=FIX.4.2|9=197|35=G|34=119|49=ABC_DEFG01|52=20090325-15:15:04|56=CCG|115=XYZ|11=NF 0575/03252009|37=NF 0574/03252009|41=NF 0574/03252009|100=LSE|54=1|38=2000|55=CVS|40=2|44=25.46|59=0|47=A|60=20090325-15:15:04|21=1|207=N|10=176|
8=FIX.4.2|9=157|35=D|34=129|49=ABC_DEFG01|52=20090325-15:19:49|56=CCG|115=XYZ|11=NF 0576/03252009|100=PAR|54=1|38=1000|55=CVS|40=2|44=25.47|59=0|47=A|60=20090325-15:19:49|21=1|207=N|10=234|
8=FIX.4.2|9=190|35=F|34=130|49=ABC_DEFG01|52=20090325-15:20:13|56=CCG|115=XYZ|41=NF 0576/03252009|100=PAR|37=NF 0576/03252009|11=NF 0577/03252009|54=1|38=1000|55=CVS|60=20090325-15:20:13|1=1|207=N|9428=100|9429=900|10=130|
8=FIX.4.2|9=145|35=D|34=4|49=ABC_DEFG01|52=20090323-15:40:29|56=CCG|115=XYZ|11=NF 0542/03232009|100=NASDAQ |54=1|38=100|55=CVS|40=1|59=0|47=A|60=20090323-15:40:29|21=1|207=N|10=139|
8=FIX.4.2|9=145|35=D|34=4|49=ABC_DEFG01|52=20090323-15:40:29|56=CCG|115=XYZ|11=NF 0542/03232020|100=NASDAQ |54=1|38=100|55=CVS|40=1|59=0|47=A|60=20090323-15:40:29|21=1|207=N|10=139|
8=FIX.4.2|9=145|35=D|34=25|49=ABC_DEFG01|52=20090325-14:28:05|56=CCG|115=XYZ|11=NF 0568/03252009|100=NYSE|54=2|38=500|55=CVS|40=1|59=0|47=A|60=20090325-14:28:11|21=1|207=N|10=139|
8=FIX.4.2|9=157|35=D|34=117|49=ABC_DEFG01|52=20090325-15:14:27|56=CCG|115=XYZ|11=NF 0573/03252009|100=LSE|54=1|38=1000|55=CVS|40=2|44=25.47|59=0|47=A|60=20090325-15:14:27|21=1|207=N|10=210|
8=FIX.4.2|9=197|35=G|34=118|49=ABC_DEFG01|52=20090325-15:14:47|56=CCG|115=XYZ|11=NF 0574/03252009|37=NF 0573/03252009|100=LSE|41=NF 0573/03252009|54=1|38=2000|55=CVS|40=2|44=25.47|59=0|47=A|60=20090325-15:14:47|21=1|207=N|10=185|
8=FIX.4.2|9=197|35=G|34=119|49=ABC_DEFG01|52=20090325-15:15:04|56=CCG|115=XYZ|11=NF 0575/03252009|37=NF 0574/03252009|41=NF 0574/03252009|100=LSE|54=1|38=2000|55=CVS|40=2|44=25.46|59=0|47=A|60=20090325-15:15:04|21=1|207=N|10=176|
8=FIX.4.2|9=157|35=D|34=129|49=ABC_DEFG01|52=20090325-15:19:49|56=CCG|115=XYZ|11=NF 0576/03252009|100=PAR|54=1|38=1000|55=CVS|40=2|44=25.47|59=0|47=A|60=20090325-15:19:49|21=1|207=N|10=234|
8=FIX.4.2|9=190|35=F|34=130|49=ABC_DEFG01|52=20090325-15:20:13|56=CCG|115=XYZ|41=NF 0576/03252009|100=PAR|37=NF 0576/03252009|11=NF 0577/03252009|54=1|38=1000|55=CVS|60=20090325-15:20:13|1=1|207=N|9428=100|9429=900|10=130|
